:100000000C943E010C9466010C9466010C946601FC
:100010000C9466010C9466010C9466010C946601C4
:100020000C9466010C9466010C94AA0E0C941C0F9F
:100030000C9466010C9466010C9466010C946601A4
:100040000C9466010C9466010C9466010C94660194
:100050000C9466010C9466010C9466010C94ED05F9
:100060000C9466010C945B040C9435040C946601AA
:100070000C9466010C9466010C9466010C94660164
:100080000C9466010C9466010C9466010C94660154
:100090000C9466010C9466010C9466010C94660144
:1000A0000C9466010C9466010C9466019602990208
:1000B00088028C029202BA02BA02BA029D02A1021E
:1000C000A502AB02AF02BA02B502436F6E74656E51
:1000D000742D547970653A20746578742F68746D46
:1000E0006C004163636573732D436F6E74726F6C44
:1000F0002D416C6C6F772D4F726967696E3A202ABB
:10010000005374617475733A2032303000302E30F1
:100110002E302E30003132372E302E302E3100006E
:10012000000000240027002A002D003000000000FD
:1001300000250028002B002E0031000000000023C5
:1001400000260029002C002F0004040404040304EA
:100150000502020202040302020202060606060665
:100160000604040202020404040802011040804054
:1001700010204080408008020401804020100201CD
:10018000108010204040200000000200090F0000F5
:10019000030401000C00000000000000000000004B
:1001A00000000000000072756E2D62726964676560
:1001B0000A000A000A006572726F723A20696E7650
:1001C000616C6964206D6F6465200020636F6E66EA
:1001D000696775726564206173204F55545055549A
:1001E000210050696E20440020636F6E6669677558
:1001F00072656420617320494E5055542100506946
:100200006E2044006572726F7200080B00020202D9
:100210000100090400000102020000052400100191
:100220000524010101042402060524060001070536
:10023000810310004009040100020A0000000705C4
:100240000202400000070583024000000403090485
:1002500012010002EF02014041234180000101022E
:10026000030141726475696E6F204C4C430041720A
:100270006475696E6F2059756E00A51711241FBE35
:10028000CFEFDAE0DEBFCDBF23E0AAE7B2E001C0E6
:100290001D92A73BB207E1F712E0A0E0B1E0E6EE65
:1002A000F6E302C005900D92AA37B107D9F711E025
:1002B000CEE3D1E004C02197FE010E943C19CD336A
:1002C000D107C9F70E940C120C94711B0C9400000A
:1002D000FC01538D448D252F30E0842F90E0821B4C
:1002E000930B541710F0CF96089501970895FC01D1
:1002F000918D828D981761F0828DDF01A80FB11D5D
:100300005D968C91928D9F5F9F73928F90E0089580
:100310008FEF9FEF0895FC01918D828D981731F03A
:10032000828DE80FF11D858D90E008958FEF9FEF8E
:100330000895FC01918D228D892F90E0805C9F4F64
:10034000821B91098F739927089585ED92E00E9491
:10035000990121E0892B09F420E0822F0895FC0106
:10036000848DDF01A80FB11DA35ABF4F2C91848D3E
:1003700090E001968F739927848FA689B7892C9373
:10038000A089B1898C9180648C93938D848D98130E
:1003900006C00288F389E02D80818F7D80830895D7
:1003A000EF92FF920F931F93CF93DF93EC0181E0C5
:1003B000888F9B8D8C8D981305C0E889F989808181
:1003C00085FD24C0F62E0B8D10E00F5F1F4F0F73BD
:1003D0001127E02E8C8DE8120CC00FB607FCFACF67
:1003E000E889F989808185FFF5CFCE010E94AF01B0
:1003F000F1CF8B8DFE01E80FF11DE35AFF4FF08224
:100400000B8FEA89FB898081806207C0EE89FF89B2
:100410006083E889F98980818064808381E090E04D
:10042000DF91CF911F910F91FF90EF900895CF939F
:10043000DF93EC01888D8823C9F0EA89FB898081EC
:1004400085FD05C0A889B9898C9186FD0FC00FB6BE
:1004500007FCF5CF808185FFF2CFA889B9898C91FF
:1004600085FFEDCFCE010E94AF01E7CFDF91CF91A5
:10047000089580E090E0892B29F00E94A501811168
:100480000C9400000895CF93DF931F92CDB7DEB791
:100490006983DC01ED91FC910280F381E02D41E064
:1004A00050E0BE016F5F7F4F09950F90DF91CF91B4
:1004B000089583E08093E9008091F200882319F089
:1004C0008AE38093E8000895FC018485958597FD73
:1004D0000BC09FB7F89482E08093E9008091F2000E
:1004E0009FBF90E0019608959FB7F89482E08093B3
:1004F000E9008091F2009FBF90E0089590E0FC0138
:100500003197EF30F105B0F5EA5AFF4F0C943C19E2
:10051000809180008F7703C0809180008F7D8093D1
:100520008000089580918000877FF9CF84B58F7710
:1005300002C084B58F7D84BD0895809190008F772F
:1005400007C0809190008F7D03C080919000877FCD
:100550008093900008958091C0008F7703C08091B0
:10056000C0008F7D8093C00008958091C200877F76
:100570008093C20008953FB7F89480917F029091D4
:100580008002A0918102B091820226B5A89B05C08D
:100590002F3F19F00196A11DB11D3FBFBA2FA92F02
:1005A000982F8827820F911DA11DB11DBC01CD017F
:1005B00042E0660F771F881F991F4A95D1F708956B
:1005C0000895FB012785FC012787FB012685FC0197
:1005D00026870895FC0187850895089580E090E0BE
:1005E00008950E94100C90E00895CF93DF931F921E
:1005F000CDB7DEB7FC018485958597FD05C02FEF4B
:100600003FEF358724870BC0CE0101960E94E60B91
:10061000019719F4898190E002C08FEF9FEF0F904E
:10062000DF91CF9108950F931F93CF93DF931F9284
:10063000CDB7DEB78C01FC018485958597FF0EC090
:10064000CE0101960E94E60B019719F4298130E052
:1006500002C02FEF3FEFF80135872487F80184852A
:1006600095850F90DF91CF911F910F9108950E9472
:10067000391BAF92BF92CF92DF92EF92FF920F930E
:100680001F93CF93DF9300D0CDB7DEB7FC018785F2
:100690008823B1F05A019B018CE6898386858A8381
:1006A000C12CD12CE12CF12C8A0142E050E0BE019A
:1006B0006F5F7F4F848595850E949409C50102C0B4
:1006C00080E090E00F900F90DF91CF911F910F91FC
:1006D000FF90EF90DF90CF90BF90AF900895AF92D2
:1006E000BF92CF92DF92EF92FF920F931F93CF931F
:1006F000DF93CDB7DEB72A970FB6F894DEBF0FBEF3
:10070000CDBF5C018EE48F83F50186819781988748
:1007100089871A8219821C821B821E821D8265E1D2
:1007200071E0CE0101960E944B0DF501818581118A
:1007300006C06DE071E0CE0101960E944B0D0D8167
:100740001E8129813A81CC24C394D12CCE010A96F2
:100750007C0143E050E0BE01695F7F4FF501848179
:1007600095810E94940981E09A85913009F080E09A
:10077000F5018087CE0101960E94940D2A960FB64E
:10078000F894DEBF0FBECDBFDF91CF911F910F91C7
:10079000FF90EF90DF90CF90BF90AF900895EF92D1
:1007A000FF920F931F93CF93DF93CDB7DEB72897B8
:1007B0000FB6F894DEBF0FBECDBF7C018B0169EB95
:1007C00071E0CE0101964F8358870E94950E62E139
:1007D00070E0CE0101960E94540CD80112966C91E3
:1007E000CE0101960E94D90C6EE2CE0101960E94C4
:1007F000040DF8016381CE0101960E94D90C6EE2CE
:10080000CE0101960E94040DD80114966C91CE0180
:1008100001960E94D90C6EE2CE0101960E94040D51
:10082000F8016581CE0101960E94D90CD701ED91A6
:10083000FC9169817A810088F189E02D4F8158858A
:10084000C70109958C01CE0101960E94940DC80143
:1008500028960FB6F894DEBF0FBECDBFDF91CF91C3
:100860001F910F91FF90EF9008951F920F920FB676
:100870000F9211242F933F934F935F936F937F9326
:100880008F939F93AF93BF93EF93FF9385ED92E088
:100890000E94AF01FF91EF91BF91AF919F918F9116
:1008A0007F916F915F914F913F912F910F900FBE6C
:1008B0000F901F9018951F920F920FB60F92112450
:1008C0002F938F939F93EF93FF93E091E502F09125
:1008D000E6028081E091EB02F091EC0282FD12C011
:1008E00090818091EE028F5F8F732091EF028217CB
:1008F00051F0E091EE02F0E0EB52FD4F958F8093C6
:10090000EE0201C08081FF91EF919F918F912F9115
:100910000F900FBE0F901F901895CF93DF93282F45
:1009200030E0F901E957FE4F8491F901E859FE4F93
:10093000D491F901E75BFE4FC491CC2391F0811172
:100940000E947E02EC2FF0E0EE0FFF1FE55CFE4FF1
:10095000A591B491EC91ED2381E090E021F480E049
:1009600002C080E090E0DF91CF9108951F93CF9374
:10097000DF93282F30E0F901E957FE4F8491F90108
:10098000E859FE4FD491F901E75BFE4FC491CC23A7
:10099000C9F0162F81110E947E02EC2FF0E0EE0FBD
:1009A000FF1FE35DFE4FA591B4918FB7F89411112D
:1009B00005C09C91ED2FE095E92302C0EC91ED2B51
:1009C000EC938FBFDF91CF911F910895CF93DF9369
:1009D00090E0FC01E859FE4F2491FC01E75BFE4FDB
:1009E0008491882361F190E0880F991FFC01E15EFA
:1009F000FE4FC591D491FC01E35DFE4FA591B491EA
:100A0000611109C09FB7F89488812095822388835B
:100A1000EC912E230BC0623061F49FB7F8943881BB
:100A2000822F809583238883EC912E2B2C939FBF5C
:100A300006C08FB7F894E8812E2B28838FBFDF91F3
:100A4000CF9108958F929F92AF92BF92CF92DF92F3
:100A5000EF92FF926B017C010E94BB024B015C0193
:100A6000C114D104E104F104F1F00E94BB02DC01E5
:100A7000CB0188199909AA09BB09883E9340A105B1
:100A8000B10570F321E0C21AD108E108F10888EE3F
:100A9000880E83E0981EA11CB11CC114D104E1048E
:100AA000F10419F7DDCFFF90EF90DF90CF90BF906A
:100AB000AF909F908F9008958F929F92AF92BF9228
:100AC000CF92DF92EF92FF920F931F93CF93DF931A
:100AD0005C016B017A0180910B01882309F45BC0F2
:100AE00080918402882309F456C08091AD0380FF71
:100AF00005C08091E00082608093E000E70110E093
:100B00000AEF83E0882E9AE3992E2097D9F10E946C
:100B1000100C81110AC0015009F43DC061E070E081
:100B200080E090E00E942205F0CF282F30E0C2172D
:100B3000D3070CF48C2F4FB7F8948092E900909172
:100B4000E80095FF1DC0282F30E0C21BD30BF60133
:100B5000982F915020F081918093F100FACFC20E2E
:100B6000D31E112319F09092E80009C08091E8008B
:100B700085FD06C09092E80011E0209709F010E092
:100B80004FBFC3CF1111C3CF5D9884E68093AE03EE
:100B90001E141F0444F081E090E0F50193838283EA
:100BA00080E090E001C0C701DF91CF911F910F91CC
:100BB000FF90EF90DF90CF90BF90AF909F908F907D
:100BC00008952FB7F89460917B0270917C02809118
:100BD0007D0290917E022FBF08951F920F920FB653
:100BE0000F9211242F933F938F939F93AF93BF93B3
:100BF00080917B0290917C02A0917D02B0917E0257
:100C000030917A0223E0230F2D3720F40196A11DA5
:100C1000B11D05C026E8230F0296A11DB11D20932A
:100C20007A0280937B0290937C02A0937D02B09322
:100C30007E0280917F0290918002A0918102B0910A
:100C400082020196A11DB11D80937F0290938002C4
:100C5000A0938102B0938202BF91AF919F918F9137
:100C60003F912F910F900FBE0F901F901895CF932B
:100C7000DF93EC018D819E81DC01ED91FC9100847C
:100C8000F185E02D09951816190654F48D819E8181
:100C9000DC01ED91FC910284F385E02D0995EACF0A
:100CA000DF91CF9108958F929F92AF92BF92CF9292
:100CB000DF92EF92FF92CF93DF93EC016B010E94E2
:100CC000E1054B015C01E12CF12C8D819E81DC0161
:100CD000ED91FC910284F385E02D099597FF0FC0FB
:100CE0000E94E105DC01CB0188199909AA09BB0919
:100CF0008C159D05AE05BF0540F38FEF9FEFDF918B
:100D0000CF91FF90EF90DF90CF90BF90AF909F90EA
:100D10008F900895FC01238134812627022E22958D
:100D2000207F2025032E322F22952F700226269514
:100D300032272327220F220F220F202534832383DB
:100D40000895CF92DF92EF92FF920F931F93680165
:100D5000790100E010E020E030E00E9494091F914A
:100D60000F91FF90EF90DF90CF900895AF92BF92D8
:100D7000CF92DF92EF92FF920F931F93CF93DF9367
:100D8000CDB7DEB727970FB6F894DEBF0FBECDBF45
:100D90005C019B0183E489835A834B83FB010190AF
:100DA0000020E9F731978F01061B170BCC24C39461
:100DB000D12CCE0107967C0143E050E0BE016F5F6D
:100DC0007F4FD5011C968D919C911D970E9494098F
:100DD000892BC1F18F81F501868793E69C838D83F2
:100DE00001E010E09E012A5F3F4F42E050E0BE016B
:100DF0006C5F7F4FD5011C968D919C911D970E9431
:100E0000A1068E81882339F061E070E080E090E0F7
:100E10000E942205E5CF81E0F50187870190F081EE
:100E2000E02D0688F789E02DC501099581110DC0D7
:100E3000D501ED91FC910488F589E02DC501099556
:100E4000F501168680E090E002C081E090E02796F0
:100E50000FB6F894DEBF0FBECDBFDF91CF911F91CB
:100E60000F91FF90EF90DF90CF90BF90AF900895DB
:100E7000EF92FF920F931F93CF93DF9300D01F92B7
:100E8000CDB7DEB7DC011F962C911F97222301F10D
:100E90007C01ED91FC910084F185E02D0995892B71
:100EA000C9F48CE48983F70186858A8301E010E028
:100EB0009E012D5F3F4F42E050E0BE016F5F7F4FCC
:100EC000848595850E94A10681E09B81913019F06F
:100ED00080E001C081E00F900F900F90DF91CF91E3
:100EE0001F910F91FF90EF900895EF92FF920F9353
:100EF0001F93CF93DF9300D01F92CDB7DEB7FC01D5
:100F00002089211118C07C01118A8BE4898380E437
:100F10008B8386858A839F012E5E3F4F00E410E01D
:100F200043E050E0BE016F5F7F4F848595850E944E
:100F3000A106F701808B0F900F900F90DF91CF915A
:100F40001F910F91FF90EF900895CF93DF93EC01E5
:100F50000E9475078889882331F08989C80FD11DBF
:100F60008A8990E002C08FEF9FEFDF91CF910895C3
:100F7000CF92DF92EF92FF920F931F93CF93DF9365
:100F8000EC016A017B0100E010E08889811106C054
:100F9000CE010E9475078889882399F00F5F1F4F43
:100FA000898991E0980F998BFE01E80FF11D8289E4
:100FB000F70181937F0188898150888B0C151D056D
:100FC00020F3C801DF91CF911F910F91FF90EF9017
:100FD000DF90CF900895CF93DF93EC010E947507C7
:100FE0008889882359F08150888B898991E0980FEE
:100FF000998BC80FD11D8A8990E002C08FEF9FEFB7
:10100000DF91CF910895CF93DF93EC010E94750794
:10101000888990E0DF91CF9108950F931F9300E0AE
:1010200010E020E030E00E94A1061F910F9108958A
:10103000CF93DF9300D0CDB7DEB722E629836A8352
:1010400042E050E0BE016F5F7F4FFC0184819581DB
:101050000E940D0881E090E00F900F90DF91CF91FA
:101060000895CF93DF9300D01F92CDB7DEB7FC0178
:101070002785222389F08CE6898386858A836B8382
:1010800043E050E0BE016F5F7F4F848595850E94ED
:101090000D0881E090E002C080E090E00F900F909A
:1010A0000F90DF91CF9108950F931F93CF93DF930C
:1010B00000D0CDB7DEB78C01FC018785882369F0AD
:1010C0008AE6898386858A8342E050E0BE016F5FAD
:1010D0007F4F848595850E940D08F8011786108A38
:1010E000118A0F900F90DF91CF911F910F9108956A
:1010F000CF93DF93EC0161E071E00E94800962EE22
:1011000070E0CE010E9480096AEC70E0CE010E947E
:10111000800967EB71E0CE01DF91CF910C946B09F0
:10112000DC01FB018281938113969C938E9312972D
:10113000448155816681778114964D935D936D93BB
:101140007C931797408551856285738518964D93DA
:101150005D936D937C931B978EE391E011969C9326
:101160008E93848595851D969C938E931C9786857A
:101170001E968C931E9787851F968C931F97808948
:1011800050968C935097818951968C93519780E417
:101190007296529601900D928A95E1F70895EF921A
:1011A000FF920F931F93CF93DF938C017B01C0E0DD
:1011B000D0E0F701EC0FFD1F6491662361F0D801C8
:1011C000ED91FC910190F081E02DC8010995892BEA
:1011D00011F02196EECFCE01DF91CF911F910F91AB
:1011E000FF90EF900895CF92DF92EF92FF920F93CE
:1011F0001F93CF93DF936C017A018B01C0E0D0E0A5
:10120000CE15DF0589F0D8016D918D01D601ED91E4
:10121000FC910190F081E02DC6010995892B11F414
:101220007E0102C02196ECCFC701DF91CF911F91C3
:101230000F91FF90EF90DF90CF900895DC01ED913A
:10124000FC910190F081E02D09948F929F92AF92D2
:10125000BF92CF92DF92EF92FF920F931F93CF93A3
:10126000DF937C018B016C0182E0C80ED11C470129
:10127000E5E08E0E911CC0E0D0E0F60141916F01D7
:1012800050E060E070E02AE0C8010E94A4115C0117
:101290006EE2C8010E941E098A0D9B1DC80FD91F4E
:1012A000C814D90451F7F701458150E060E070E0BF
:1012B0002AE0C8010E94A4118C0F9D1FDF91CF91DD
:1012C0001F910F91FF90EF90DF90CF90BF90AF9064
:1012D0009F908F9008956115710579F0FB01019041
:1012E0000020E9F73197AF01461B570BDC01ED9168
:1012F000FC910280F381E02D099480E090E0089554
:101300000F931F93CF93DF93EC010E94CF088C01C2
:1013100067EB71E0CE010E946B09800F911FDF9196
:10132000CF911F910F9108952F923F924F925F920C
:101330006F927F928F929F92AF92BF92CF92DF92E5
:10134000EF92FF920F931F93CF93DF93CDB7DEB74A
:101350002B970FB6F894DEBF0FBECDBF9B878A8751
:101360005B011901FD82EC823A01600E711E872C2F
:101370007B82912C44244A94542C9B01240F351FCA
:101380003F832E839101200F311F39872887EA85FB
:10139000FB858085981608F036C1AA85BB85149612
:1013A0005C924E92139715968D919C911697DC0145
:1013B000ED91FC910190F081E02D6FEF09956FEFB9
:1013C0008A859B850E948A06EA85FB8585819681B0
:1013D000DC01ED91FC910190F081E02DAA85BB85A7
:1013E0006C910995EA85FB856081CF010E948A0690
:1013F000AA85BB8515968D919C911697DC01ED9180
:10140000FC910190F081E02D682D09956B818A8512
:101410009B850E948A06EA85FB8585819681DC0191
:10142000ED91FC910190F081E02D662D0995662DDE
:101430008A859B850E948A0675012E813F81E2166E
:10144000F306B1F0EA85FB85858196818701DC0191
:10145000ED91FC910190F081E02DD7016D917D011E
:101460000995F80160818A859B850E948A06E5CFEF
:101470007101AA85BB8515968D919C91169728853B
:101480003985E216F30691F08701DC01ED91FC91BC
:101490000190F081E02DD7016D917D010995F80152
:1014A00060818A859B850E948A06E3CFDC01ED91ED
:1014B000FC91AA85BB8514966C910190F081E02D7A
:1014C0000995EA85FB8585819681DC01ED91FC918A
:1014D0000190F081E02DAA85BB8513966C9109954A
:1014E00064E670E08A859B850E9453068F3F9105D4
:1014F00009F07DC0EA85FB85548243826FEFCF01FE
:101500000E948A0665E070E08A859B850E945306EA
:10151000AA85BB856C91262F30E08217930709F0CE
:1015200066C0CD010E948A066AE070E08A859B85CC
:101530000E9453067C0197FD5AC0682F8A859B85BF
:101540000E948A066AE070E08A859B850E945306A5
:101550008C0197FD4CC0682F8A859B850E948A0666
:10156000EA821982E981FA810E0F1F1FE12CF12C0A
:1015700065E070E08A859B85E016F106A9F0EC1421
:10158000FD0491F00E94530697FD0AC0EC81FD8195
:10159000EE0DFF1D8083682F8A859B850E948A0639
:1015A000FFEFEF1AFF0AE4CF0E9453067C0197FD7C
:1015B0001EC065E070E08A859B850E94530697FDFA
:1015C00016C0FE2CEE248E0D9F1DAA85BB8513969A
:1015D0002D913C9114972817390749F48C918F5F0E
:1015E0008C93C801C016D10680F4C6010EC0939436
:1015F00064E670E080E090E00E9422058A859B8589
:101600000E943706C4CE8FEF9FEF2B960FB6F8944B
:10161000DEBF0FBECDBFDF91CF911F910F91FF9025
:10162000EF90DF90CF90BF90AF909F908F907F9082
:101630006F905F904F903F902F900895CF93DF93DE
:10164000BC0185E892E00E946B09EC0167EB71E058
:1016500085E892E00E946B098C0F9D1FDF91CF916E
:101660000895AF92BF92CF92DF92EF92FF921F93B5
:10167000CF93DF9300D000D0CDB7DEB75C01C501BA
:101680000E947411FC0197FD0FC08D32910581F00D
:10169000C0970A9768F0D501ED91FC910284F3851B
:1016A000E02DC5010995EBCF60E070E0CB014AC0A9
:1016B00020E030E0A90110E0E130F105E9F0ED3281
:1016C000F105C9F0CF01C0970A97B0F4AAE0B0E0E5
:1016D0000E94C9186F01FF0FEE08FF08DC01CB0163
:1016E0008C0D9D1DAE1DBF1D9C01AD012053310908
:1016F0004109510901C011E0D501ED91FC9102842D
:10170000F385E02DC50129833A834B835C830995DA
:10171000C5010E947411FC01C09729813A814B8157
:101720005C810A9748F2E130F10531F2112341F072
:1017300066277727CB01621B730B840B950B02C0C6
:10174000CA01B9010F900F900F900F90DF91CF91C8
:101750001F91FF90EF90DF90CF90BF90AF900895D2
:10176000CF92DF92EF92FF920F931F93CF93DF936D
:101770006B01770FEE08FF08F7FE1BC0EC016DE26E
:101780000E941E098C0144275527BA014C195D0996
:101790006E097F092AE0CE010E94A411800F911FDB
:1017A000DF91CF911F910F91FF90EF90DF90CF903D
:1017B00008952AE0B701A601DF91CF911F910F9103
:1017C000FF90EF90DF90CF900C94A411FC018091DA
:1017D0008402811103C08FEF9FEF08959FB7F894A3
:1017E00082E08093E9002091F20030E012161306A7
:1017F00014F421E030E02115310559F0289884E6F1
:10180000809383028091F10080838091F20088238D
:1018100019F09FBFC90108958BE68093E800F9CFC6
:101820002FB7F89483E08093E9009091E800892F26
:10183000807295FF04C09091F20080E4891B2FBF55
:10184000089580918B0381110DC082E080938703FE
:1018500084E08093880310928A031092890381E0C8
:1018600080938B0387E893E00895FC012481358100
:10187000232B31F421E061157105A1F0FB0108C0B3
:10188000FC01808191816115710531F421E0FC0139
:101890008081882339F005C00E94471B21E0892BF5
:1018A00009F020E0822F08950F931F93CF93DF93C9
:1018B000EC0188819981009729F02A813B812617C4
:1018C000370788F48B016F5F7F4F0E946F1A009774
:1018D00061F0998388831B830A832C813D81232BAC
:1018E00011F4FC01108281E001C080E0DF91CF9112
:1018F0001F910F910895EF92FF920F931F93CF9333
:10190000DF93FC01248135816115710511F480E0BC
:1019100019C041155105A9F07B01EC018A01020FA4
:10192000131FB8010E94540C882389F32881398140
:101930008C819D81B701820F931F0E94501B1D83D4
:101940000C8381E0DF91CF911F910F91FF90EF9079
:101950000895EF92FF920F931F93CF93DF93CDB72C
:10196000DEB728970FB6F894DEBF0FBECDBF7C015F
:10197000CB014AE08E010F5F1F4FB8010E949418FF
:10198000F80101900020E9F73197AF01401B510B9E
:10199000B801C7010E947B0C28960FB6F894DEBFF1
:1019A0000FBECDBFDF91CF911F910F91FF90EF90B0
:1019B0000895EF92FF920F931F93CF93DF9300D080
:1019C00000D0CDB7DEB77C01862F4AE08E010F5FD5
:1019D0001F4FB80190E00E949418F8010190002078
:1019E000E9F73197AF01401B510BB801C7010E94C5
:1019F0007B0C0F900F900F900F90DF91CF911F9164
:101A00000F91FF90EF900895CF93DF9300D0CDB763
:101A1000DEB769831A8241E050E0BE016F5F7F4FFD
:101A20000E947B0C0F900F90DF91CF91089561156C
:101A3000710551F0FB0101900020E9F73197AF01EA
:101A4000461B570B0C947B0C80E00895CF93DF93DB
:101A5000EC0188819981009711F00E94D7191982B1
:101A600018821D821C821B821A82DF91CF910895F9
:101A7000CF93DF93EC01FB0144815581608171813B
:101A80000E947B0C811103C0CE010E94260DCE0165
:101A9000DF91CF910895EF92FF920F931F93CF9311
:101AA000DF93EC018B016115710551F0CB010E94B0
:101AB00080187C01BC01CE010E94540C811104C02D
:101AC000CE010E94260D07C0FD82EC82B8018881FC
:101AD00099810E947918CE01DF91CF911F910F91CA
:101AE000FF90EF900895EF92FF920F931F93CF9383
:101AF000DF93EC017B018A01BA010E94540C811131
:101B000004C0CE010E94260D07C01D830C83B701BF
:101B1000888199810E94501BCE01DF91CF911F9146
:101B20000F91FF90EF900895FC01808191810C94BA
:101B3000D719EF92FF920F931F93CF93DF93CDB7F7
:101B4000DEB762970FB6F894DEBF0FBECDBF8C0133
:101B5000CB01F80111821082138212821582148245
:101B600050E09E012F5F3F4F7901B9010E94891813
:101B7000F70101900020E9F73197AF014E195F0995
:101B8000B701C8010E94730D62960FB6F894DEBFCC
:101B90000FBECDBFDF91CF911F910F91FF90EF90BE
:101BA00008954091B1035091B2032091AF03309159
:101BB000B00342175307B4F49091E8009570E1F335
:101BC0009091E80092FD19C08093F1008091B103DB
:101BD0009091B20301968F739927892B19F48EEF98
:101BE0008093E8008091B1039091B20301969093A5
:101BF000B2038093B10381E0089580E00895DF92FD
:101C0000EF92FF920F931F93CF93DF93D82E8A0109
:101C10007B01E40EF51EEB01CE15DF0571F0D7FE5A
:101C200003C0FE01849101C088810E94D10D2196DC
:101C30008111F2CF8FEF9FEF01C0C801DF91CF91EB
:101C40001F910F91FF90EF90DF900895615030F059
:101C50002091F100FC0120830196F8CF289884E6BA
:101C60008093830208950F931F93CF93DF931F9266
:101C7000CDB7DEB782E0898342E450E06AE072E0EB
:101C800080E80E94FF0D0E94210CDC0112960D914C
:101C90001C9113970115110569F0D801ED91FC9184
:101CA0000280F381E02DBE016F5F7F4FC80109956F
:101CB00097FF07C089810F90DF91CF911F910F91FE
:101CC0000895F80100851185E5CF0F931F93CF93F9
:101CD000DF93EC010E94E105688779878A879B87FB
:101CE000E881F9810284F385E02DCE01099597FF03
:101CF00017C00E94E105088519852A853B85DC010E
:101D0000CB01801B910BA20BB30B0C811D812E818B
:101D10003F8180179107A207B30710F38FEF9FEF62
:101D2000DF91CF911F910F910895FC0111821082D4
:101D300013821282158214826115710551F0FB0124
:101D400001900020E9F73197AF01461B570B0C9427
:101D5000730D08951F920F920FB60F9211248F9357
:101D60009F938091E1009091E100937F9093E10037
:101D700083FF0FC01092E90091E09093EB00109266
:101D8000EC0092E39093ED001092840298E090931F
:101D9000F00082FF20C093E09093E9009091F20060
:101DA000992319F09AE39093E8009091AE03992358
:101DB00039F09091AE0391509093AE03992389F13D
:101DC00090918302992339F09091830291509093DE
:101DD0008302992341F184FF10C08091E2008E7E3E
:101DE00081608093E2008091E1008F7E8093E1002A
:101DF0008091AD038E7E806111C080FF16C08091FE
:101E0000E2008E7E80618093E2008091E1008E7E10
:101E10008093E1008091AD038E7E81608093AD035D
:101E200004C05D9ACDCF289AD6CF9F918F910F9005
:101E30000FBE0F901F9018951F920F920FB60F9222
:101E40001124CF92DF92EF92FF920F931F932F9363
:101E50003F934F935F936F937F938F939F93AF9332
:101E6000BF93EF93FF93CF93DF93CDB7DEB76C971C
:101E7000DEBFCDBF1092E9008091E80083FFEDC185
:101E800068E0CE0145960E94260E82EF8093E8001E
:101E90008D8987FF05C09091E80090FFFCCF03C0BB
:101EA0009EEF9093E800982F907609F0C6C09E8927
:101EB0002F89188D91110CC0803829F48091AC03C2
:101EC0008093F10002C01092F1001092F10048C11D
:101ED000422F50E0512B913051F4811141C14130DA
:101EE000510509F03DC18091AC038D7F0BC093304B
:101EF00061F4811135C14130510509F031C1809142
:101F0000AC0382608093AC032BC1953041F4809187
:101F1000E80080FFFCCF20682093E30021C19630C9
:101F200009F05FC0EB8CFC8C1092E9001092B203B8
:101F30001092B103123091F51092B0031092AF03DA
:101F40000E94330E99E0BE016F5F7F4FDB01E92FE6
:101F50001D92EA95E9F799831A8391E09E8390EAAE
:101F600098879AEF99872091B1033091B203275F48
:101F70003F4F3C832B838D831092E9001092B20374
:101F80001092B103F092B003E092AF0349E050E049
:101F900080E00E94FF0D0E94330EE2C0F092B00379
:101FA000E092AF030E94210CDC011296ED90FC90B0
:101FB0001397E114F10409F4C0C0D701ED91FC912D
:101FC0000480F581E02DBE016B5E7F4FC70109954E
:101FD000009719F00CF0C4C0C7C0F701E084F18489
:101FE000E8CF973009F4C0C0983021F481E08093A5
:101FF000F100B6C0993009F0B3C0837009F0B4C0E5
:10200000E1EBF1E081E021E036E39081992361F09A
:102010008093E9002093EB0091919093EC00309332
:10202000ED008F5F873089F78EE78093EA0010928A
:10203000EA008F898093840293C08B8D9C8D1092CF
:10204000E9001092B2031092B1039093B003809311
:10205000AF03898D811156C08E899D89913A59F4BB
:10206000813209F081C047E050E064E071E080E037
:102070000E94FF0D75C0913209F076C0833289F459
:10208000888D90E0982F88272F89822BA0E0B0E0E0
:102090008093000190930101A0930201B09303018A
:1020A0005FC0803269F48091E80082FFFCCF67E076
:1020B00084E091E00E94260E8BEF8093E80006C03A
:1020C000823209F04DC08F8980930B018091AB0360
:1020D000882319F0EEEFFAE002C0E0E0F8E080912A
:1020E000040190910501A0910601B0910701803B88
:1020F0009440A105B10509F07BC080910B0180FFE0
:1021000093C076C00E94210CDC0112960D911C91A7
:1021100013970115110541F1D801ED91FC91019042
:10212000F081E02DBE016B5E7F4FC80109958111E2
:1021300017C0F80100851185ECCF113009F44EC0AD
:10214000133091F48F89882309F445C0823081F4DB
:1021500040E86BE08EE692E00E943C18882321F074
:102160008EEF8093E80079C081E28093EB0075C028
:10217000813029F440E86BE082E692E0EDCF8330D5
:1021800099F70E94210CDC011296ED90FC901397B8
:102190008E010F5F1F4F6801E114F10479F0D70140
:1021A000ED91FC910680F781E02DB801C7010995FA
:1021B000080F111DF701E084F184EECFD8011C92C5
:1021C000F60101900020E9F73197BF016C197D09F4
:1021D00040E0C601C1CF6CE472E002C060E572E08D
:1021E0006115710509F2FB01449150E080E840CF90
:1021F0000FB6F894A8958091600088618093600084
:10220000109260000FBEA895EE3F2AE0F20739F069
:102210008091FE0A9091FF0A91838083A1CF109252
:10222000FF0A1092FE0A9CCFEE3F8AE0F80731F0D9
:10223000808191819093FF0A8093FE0A87E797E758
:10224000918380839BE088E10FB6F894A8958093F2
:1022500060000FBE9093600083CF6C960FB6F89429
:10226000DEBF0FBECDBFDF91CF91FF91EF91BF9148
:10227000AF919F918F917F916F915F914F913F911E
:102280002F911F910F91FF90EF90DF90CF900F90C3
:102290000FBE0F901F901895EF92FF920F931F9310
:1022A000CF93DF93EC017B01042F69EB71E00E9477
:1022B000950EC7010E94650E002E000C110B97FDB4
:1022C0000BC08017910741F0682FCE010E94040DCA
:1022D000C7010E94650EF3CFCE01DF91CF911F9110
:1022E0000F91FF90EF9008950F931F93CF93DF937B
:1022F000EC010E94E105688779878A879B87E881DE
:10230000F9810484F585E02DCE01099597FF17C06A
:102310000E94E105088519852A853B85DC01CB01F2
:10232000801B910BA20BB30B0C811D812E813F8171
:1023300080179107A207B30710F38FEF9FEFDF918C
:10234000CF911F910F9108954F925F926F927F925C
:10235000EF92FF920F931F93CF93DF93CDB7DEB72A
:10236000A1970FB6F894DEBF0FBECDBF7C01FA0176
:10237000CB0119A2223008F42AE08E010F5D1F4F15
:10238000422E512C612C712CBF01A30192010E949D
:102390001A19F901CA01015011096A3014F4605D7B
:1023A00001C0695CD8016C93232B242B252B61F78A
:1023B000B801C7010E946B09A1960FB6F894DEBF61
:1023C0000FBECDBFDF91CF911F910F91FF90EF9086
:1023D0007F906F905F904F9008950F931F93CF93CE
:1023E000DF93EC01E881F981DB0114964D915C915A
:1023F00015976D917C910280F381E02D09958C01F8
:1024000067EB71E0CE010E946B09800F911FDF9195
:10241000CF911F910F910895CF93DF93CDB7DEB782
:10242000C656D1400FB6F894DEBF0FBECDBF78942C
:1024300084B5826084BD84B5816084BD85B58260C9
:1024400085BD85B5816085BD80916E00816080937A
:102450006E001092810080918100826080938100E3
:1024600080918100816080938100809180008160F3
:102470008093800080919100826080939100809190
:1024800091008160809391008091900081608093A1
:1024900090008091C10084608093C1008091C10050
:1024A00082608093C1008091C10081608093C100EF
:1024B0008091C30081608093C3008091C0008260DE
:1024C0008093C0008091C20081608093C20080919F
:1024D0007A00846080937A0080917A008260809391
:1024E0007A0080917A00816080937A0080917A00EE
:1024F000806880937A00109284021092AC0310924C
:10250000AD038091D70081608093D70080EA8093EB
:10251000D80089B5806189BD89B5826089BD09B45B
:1025200000FEFDCF61E070E080E090E00E942205B7
:102530008091D8008F7C80618093D8008091E000EA
:10254000807F8093E0008091E1008E7E8093E100A7
:102550008DE08093E200559A209AEEEFFFE7859197
:1025600094918B3F9C4D19F481E08093AB0361E023
:102570008DE00E94E60460E08DE00E94B60460E613
:102580007AEE80E090E00E942205E0917B03F091DA
:102590007C03A089B18982E08C93A485B5851C92C7
:1025A000A685B78587E08C93108EA489B58986E0CF
:1025B0008C93A289B3898C9180618C93A289B38911
:1025C0008C9188608C93A289B3898C9180688C935C
:1025D0000288F389E02D80818F7D8083809179034B
:1025E0008111D0C081E08093790382E793E00E945B
:1025F000370668EE73E080E090E00E94220580914B
:10260000770390917803DC01ED91FC910084F185D2
:10261000E02D09951816190644F335E0F32EEE2443
:10262000E39442E3D42EE2E1F1E0DE01AD5ABF4F84
:102630008F2D01900D928A95E1F7E0927A0345E0A3
:1026400050E0BE016D5A7F4F82E793E00E940D0873
:1026500063E080917703909178030E941E096AEFEE
:1026600070E080E090E00E94220564EB71E08091D0
:102670007703909178030E94CF086AEF70E080E0C2
:1026800090E00E94220562EB71E0809177039091C7
:1026900078030E94CF0864EF71E080E090E00E9430
:1026A000220566EA71E080917703909178030E9499
:1026B000CF0864EF71E080E090E00E94220582E79D
:1026C00093E00E943706E7E1F1E0DE0111968F2DDD
:1026D00001900D928A95E1F7D0927A0304E010E020
:1026E0009E012B553F4F45E050E0BE016F5F7F4F8D
:1026F00082E793E00E94A1068F3FBFEF9B0739F46A
:1027000068EE73E080E090E00E9422058CCFCB550C
:10271000DF4F2881C55AD0402111FFCF049749F5DA
:10272000CA55DF4F2881C65AD04030E020533109C6
:1027300084E6829FA001839F500D1124C955DF4F6D
:102740002881C75AD04030E0205331096AE0629FA7
:10275000C001639F900D1124840F951FC855DF4F52
:102760002881C85AD04030E020533109820F931F8E
:1027700002C084E690E0909374038093730382E335
:1027800080937A038DE793E00E946F038FEF9FEFB2
:10279000909392028093910211E060E0812F0E9459
:1027A000B6041F5F1E30C9F78AEB91E00E941E0B32
:1027B0008BE6C82E98EE492E93E0592E612C712C91
:1027C00022E7222E23E0322E6496CFAE649701E0FA
:1027D00010E09E012F5F3F4F41E050E0BE016D5A77
:1027E0007F4F80918103909182030E94A106892BE3
:1027F00039F5C750DF4F19821882C95FD040C550E4
:10280000DF4F488259826A827B82CB5FD0402EE3C1
:1028100031E0C950DF4F39832883C75FD040CD5F97
:10282000DE4F39822882C350D140CB5FDE4F188201
:10283000C550D140CA5FDE4F1882C650D14028C073
:102840008981C750DF4F19821882C95FD040C550B7
:10285000DF4F488259826A827B82CB5FD040AEE3F1
:10286000B1E0C950DF4FB983A883C75FD040CD5FC7
:10287000DE4F39822882C350D140CB5FDE4F888340
:10288000C550D14081E0CA5FDE4F8883C650D14039
:10289000C95FDE4F1882C750D140CA5FDE4F8881C2
:1028A000C650D140882309F443C3BE0169507F4F0D
:1028B000CE018B559F4F0E9490084FE2BE016B5591
:1028C0007F4FCE01855A9E4F0E944C1160EC71E003
:1028D000CE0101960E94950EBE01655A7E4FCE0133
:1028E00001960E94380D8C0141E050E068EB71E0E8
:1028F0000E947B0C882309F424C3E0918502F091A7
:102900008602D80114964D915C9115976D917C913A
:102910000280F381E02D85E892E00995CE010196D1
:102920000E94940D69EC71E0CE0101960E94950E13
:10293000C15ADE4F88819981CF55D140892B89F0CA
:10294000C55ADE4FE880F980CB55D14069817A8144
:10295000C7010E94571B009721F08C010E191F0917
:1029600002C00FEF1FEFCE0101960E94940D012BC4
:1029700009F0E2C0BE016B557F4FCE018D5A9F4FCB
:102980000E94900887ED91E00E941E0B62EF71E0BB
:10299000CE018B5A9E4F0E94950E69EB71E0CE01DD
:1029A000815B9E4F0E94950E62EF71E0CE018B5AC3
:1029B0009E4F0E94350C882361F041E050E067EFA4
:1029C00071E0CE01815B9E4F0E94730D01E010E02B
:1029D00005C04CE050E069EF71E0F3CF4AE0B80188
:1029E000CE0101960E94990D66E072E0CE01875BF0
:1029F0009E4F0E94950EBE016F5F7F4FCE01875B99
:102A00009E4F0E94380DBC0185E892E00E94ED11B6
:102A1000CE01875B9E4F0E94940DCE0101960E94CD
:102A2000940D802F0E948D047C0162EF71E0CE0135
:102A30008B5A9E4F0E94350C8823B9F168E172E0F1
:102A4000CE01815B9E4F0E94170D4AE0B801CE0176
:102A500001960E94990D4D815E8169817A81CE0136
:102A6000815B9E4F0E947B0CCE0101960E94940DCB
:102A700061E272E0CE01815B9E4F0E94170DB701AB
:102A8000CE01815B9E4F0E94A90C6DE272E0CE01E7
:102A9000815B9E4F0E94170D0D30110519F060E308
:102AA00072E01BC062E372E018C04AE0B701CE01D9
:102AB00001960E94990D4D815E8169817A81CE01D6
:102AC000815B9E4F0E947B0CCE0101960E94940D6B
:102AD0000D30110521F76DE272E0CE01815B9E4F52
:102AE0000E94170D0F5F1F4F0E30110509F076CFB2
:102AF000BE016D5A7F4FCE0101960E949008CE0113
:102B000001960E947808BE01615B7E4FCE018D5A0E
:102B10009F4F0E94ED11BE01615B7E4F85E892E000
:102B20000E94ED11CE01815B9E4F0E94940DCE015B
:102B30008B5A9E4F0E94940D6FEC71E0CE01855A26
:102B40009E4F0E94350C882309F45BC1BE016B5572
:102B50007F4FCE018D5A9F4F0E949008CE018D5A13
:102B60009F4F0E94310B162FD62E072F4AE0CE0121
:102B700001960E94990D64E372E0CE01875B9E4F3F
:102B80000E94950EBE016F5F7F4FCE01875B9E4F07
:102B90000E94380DBC0185E892E00E94ED11CE0143
:102BA000875B9E4F0E94940DCE0101960E94940D6A
:102BB000CE018D5A9F4F0E94EB078F9709F08AC074
:102BC000CE018D5A9F4F0E94310B4B015C017B015E
:102BD0004AE0CE0101960E94990D6FE372E0CE01AA
:102BE000875B9E4F0E94950EBE016F5F7F4FCE01A7
:102BF000875B9E4F0E94380DBC0185E892E00E94E1
:102C0000ED11CE01875B9E4F0E94940DCE0101967F
:102C10000E94940DCE018D5A9F4F0E94EB078F9713
:102C200009F04EC0CE018D5A9F4F0E94310BCE59F4
:102C3000DE4F688379838A839B83C256D1404AE002
:102C4000CE59DE4F68817981C256D140CE010196BE
:102C50000E94990D68E472E0CE01875B9E4F0E944E
:102C6000950EBE016F5F7F4FCE01875B9E4F0E9426
:102C7000380DBC0185E892E00E94ED11CE01875B22
:102C80009E4F0E94940DCE0101960E94940D682DD6
:102C9000812F0E94B604CE59DE4F28813981C25659
:102CA000D140B901330F880B990B0E94220561E0D6
:102CB0008A94892809F460E0812F0E94B6040AC032
:102CC000C4018E5A9D4F0E941E0B682D812F0E94B9
:102CD000B60404C0812F0E948D047C01BE016D5A90
:102CE0007F4FCE0101960E949008CE0101960E946E
:102CF000780868E172E0CE018B5A9E4F0E94950ED3
:102D00006D2D702FCE018B5A9E4F0E94A90C61E24F
:102D100072E0CE018B5A9E4F0E94170DB701CE0173
:102D20008B5A9E4F0E94A90C6DE272E0CE018B5A25
:102D30009E4F0E94170DBE016B5A7E4FCE018D5AD9
:102D40009F4F0E94ED11BE016B5A7E4F85E892E0C5
:102D50000E94ED1166E172E0CE01815B9E4F0E9400
:102D6000950E6D2D702FCE01815B9E4F0E94A90C98
:102D70004AE0B701CE01875B9E4F0E94990DC75B69
:102D8000DE4F08811981C954D140C15BDE4FE88014
:102D9000F980CF54D14066E172E0CE0101960E94E5
:102DA000950EB701CE0101960E94170D65E672E0FF
:102DB000CE0101960E94170DB801CE0101960E9426
:102DC000170D4D815E8169817A8101E010E09E01DD
:102DD0002F593E4F82E793E00E94A106CE01019653
:102DE0000E94940DCE01875B9E4F0E94940DCE01F0
:102DF000815B9E4F0E94940DCE018B5A9E4F0E9484
:102E0000940D67E672E0CE01855A9E4F0E94350C04
:102E1000882309F483C0BE016B557F4FCE01019614
:102E20000E949008CE0101960E94310BF62ECE0131
:102E30000196CA59DE4F7883C656D1400E94EB07EF
:102E4000CA59DE4F7881C656D1408F9739F064E079
:102E500072E0CE0101960E94800960C00F2D172FED
:102E60004DE0BE016F5F7F4FCE018D5A9F4F0E9494
:102E70004C116CE672E0CE018D5A9F4F0E94350CCA
:102E8000882391F060E08F2D0E94E6046EEF71E0E0
:102E9000CE0101960E94CF08B801CE0101960E9492
:102EA000B00B68EE71E01AC062E772E0CE018D5A95
:102EB0009F4F0E94350C8823B1F061E08F2D0E9456
:102EC000E60462EE71E0CE0101960E94CF08B801DF
:102ED000CE0101960E94B00B6BEC71E0CE01019621
:102EE0000E94CF0816C066EB71E0CE0101960E94E9
:102EF000CF08E981FA8169964EAD5FAD6997659615
:102F00006EAD7FAD65970280F381E02DCE01019615
:102F10000995CE018D5A9F4F0E94940DCE01855A7E
:102F20009E4F0E94940DCE0189509F4F0E945408DD
:102F300062E370E080E090E00E9422050E94390286
:102F400043CCC8010E94260DD8CCE3E9F3E08EEA19
:102F500091E0918380831282138214821582E5EDC1
:102F6000F2E01382128248EE53E060E070E04483A6
:102F70005583668377832EE531E0318320832DEC02
:102F800030E0358724872CEC30E03787268728EC23
:102F900030E0318B208B29EC30E0338B228B2AEC14
:102FA00030E0358B248B2EEC30E0378B268B118E66
:102FB000128E138E148EA5E8B2E013961C921E9208
:102FC000129714964D935D936D937C93179720E71A
:102FD00031E011963C932E932FEF3FEF1D963C93DB
:102FE0002E931C97A9E9B3E011969C938E931296A9
:102FF0001C92129713961C92139714961C92149776
:1030000015961C92AFE9B3E011969C938E9312969D
:103010001C92129713961C92139714961C92149755
:1030200015961C92A2E7B3E01C921696FC93EE93C1
:10303000159717961C92179718961C9218971A9620
:10304000FC93EE931997E5EAF3E091838083128273
:10305000138214821582EDE7F3E01382128284E971
:1030600091E091838083B583A48383EB95E197837B
:103070008683108611860895CF92DF92EF92FF9299
:103080000F931F93CF93DF931F92CDB7DEB7182F07
:10309000062FE42E862F880F8E5F99830E94D10D14
:1030A00083E00E94D10DF12EC12E9981D92E8C2D55
:1030B0008F19801798F4F601E7FE02C0849101C0D1
:1030C00080810E94D10D182F80E00E94D10D8123B4
:1030D000FFEFCF1ADF0A8111EACF01C081E00F9024
:1030E000DF91CF911F910F91FF90EF90DF90CF90E4
:1030F0000895FB01DC0105900D920020E1F7089591
:10310000FC0105900020E9F7809590958E0F9F1F98
:1031100008954532510520F4423010F00C94941873
:10312000FB011082CB010895BB274A3031F499236B
:1031300022F4BDE2909581959F4F0C94A018BB2777
:10314000FB015527AA27880F991FAA1FA41710F063
:10315000A41B83955051B9F7A05DAA3308F0A95D6F
:10316000A193009779F7B111B1931192CB010C940F
:10317000B918DC01FC01672F71917723E1F73297D1
:1031800004C07C916D9370836291AE17BF07C8F342
:1031900008950E940B19A59F900DB49F900DA49FB8
:1031A000800D911D112408952F923F924F925F92AE
:1031B0006F927F928F929F92AF92BF92CF92DF9247
:1031C000EF92FF920F931F93CF93DF93CDB7DEB7AC
:1031D000CA1BDB0B0FB6F894DEBF0FBECDBF099440
:1031E0002A88398848885F846E847D848C849B8497
:1031F000AA84B984C884DF80EE80FD800C811B81A5
:10320000AA81B981CE0FD11D0FB6F894DEBF0FBED3
:10321000CDBFED010895A29FB001B39FC001A39F50
:10322000700D811D1124911DB29F700D811D1124FF
:10323000911D0895A1E21A2EAA1BBB1BFD010DC012
:10324000AA1FBB1FEE1FFF1FA217B307E407F50756
:1032500020F0A21BB30BE40BF50B661F771F881F32
:10326000991F1A9469F760957095809590959B01C8
:10327000AC01BD01CF010895EE0FFF1F0590F49141
:10328000E02D0994CF93DF938230910510F482E012
:1032900090E0E091B503F091B60320E030E0C0E0AB
:1032A000D0E0309711F14081518148175907C0F0A3
:1032B0004817590761F482819381209719F09B8305
:1032C0008A832BC09093B6038093B50326C0211543
:1032D000310519F04217530718F49A01BE01DF01B6
:1032E000EF010280F381E02DDCCF2115310509F1DA
:1032F000281B390B2430310590F412968D919C9146
:1033000013976115710521F0FB019383828304C03B
:103310009093B6038093B503FD01329644C0FD013E
:10332000E20FF31F81939193225031092D933C9327
:103330003AC02091B3033091B403232B41F4209180
:103340000E0130910F013093B4032093B303209109
:103350000C0130910D012115310541F42DB73EB717
:103360004091100150911101241B350BE091B303E2
:10337000F091B403E217F307A0F42E1B3F0B2817BC
:10338000390778F0AC014E5F5F4F2417350748F0DE
:103390004E0F5F1F5093B4034093B30381939193F7
:1033A00002C0E0E0F0E0CF01DF91CF9108950F93EC
:1033B0001F93CF93DF93009709F48CC0FC013297E1
:1033C000138212820091B5031091B6030115110505
:1033D00081F420813181820F931F2091B3033091BA
:1033E000B4032817390779F5F093B403E093B303D6
:1033F00071C0D80140E050E0AE17BF0750F41296FC
:103400002D913C911397AD012115310509F1D90199
:10341000F3CF9D01DA013383228360817181860FAE
:10342000971F8217930769F4EC0128813981260FD1
:10343000371F2E5F3F4F318320838A819B81938387
:103440008283452B29F4F093B603E093B50342C081
:103450001396FC93EE931297ED01499159919E01B9
:10346000240F351FE217F30771F480819181840FD7
:10347000951F029611969C938E9382819381139649
:103480009C938E931297E0E0F0E0D80112968D9114
:103490009C911397009719F0F8018C01F6CF8D914C
:1034A0009C9198012E5F3F4F820F931F2091B30391
:1034B0003091B4032817390769F4309729F4109232
:1034C000B6031092B50302C0138212821093B403A4
:1034D0000093B303DF91CF911F910F910895A0E066
:1034E000B0E0E5E7FAE10C94D818EC01009721F47C
:1034F000CB010E944219B8C0FC01E60FF71F9C01E6
:1035000022503109E217F30708F4ACC0D9010D913C
:103510001C91119706171707B0F00530110508F434
:103520009FC0C80104978617970708F499C00250F6
:103530001109061B170B019311936D937C93CF0117
:103540000E94D7198DC05B01A01AB10A4C01800EF0
:10355000911EA091B503B091B60340E050E0E12C7C
:10356000F12C109709F44AC0A815B905D1F56D9052
:103570007C901197630182E0C80ED11CCA14DB0451
:1035800080F1A3014A195B096A0182E0C80ED11CCF
:103590001296BC9012971396AC91B5E0CB16D1045D
:1035A00040F0B282A38351834083D9016D937C9311
:1035B0000AC00E5F1F4FC301800F911FF901918355
:1035C0008083EB2DFA2FE114F10431F0D70113962B
:1035D000FC93EE93129744C0F093B603E093B503C7
:1035E0003FC08D919C9111974817590708F4AC0181
:1035F0007D0112960D90BC91A02DB3CF8091B303A5
:103600009091B40388159905E1F446175707C8F45B
:1036100080910C0190910D01009741F48DB79EB7F8
:103620004091100150911101841B950BE817F90787
:10363000C8F4F093B403E093B303F901718360839A
:103640000FC0CB010E9442197C01009759F0A801DC
:10365000BE010E943E1BCE010E94D719C70104C0C3
:10366000CE0102C080E090E0CDB7DEB7EEE00C9472
:10367000F41881E090E0F8940C94711BFB01DC01DC
:1036800002C001900D9241505040D8F70895FB01BF
:10369000DC018D91019080190110D9F3990B0895E7
:1036A000FB01DC0101900D920020E1F70895FB0180
:1036B00051915523A9F0BF01DC014D9145174111EE
:1036C000E1F759F4CD010190002049F04D914015EA
:1036D0004111C9F3FB014111EFCF81E090E0019767
:0636E0000895F894FFCFED
:1036E600FFFFFFFF00E10000000000000000B7033D
:1036F600800058585858585858313030000000004B
:1037060037033703EE02370337033703370337032D
:103716003703370337033703370300000000310848
:103726003903EE02E0020308EB07A507CF03B6064E
:10373600B80754083807EA02E10200000000D00189
:10374600F30868011702990177018B010000000058
:1037560043025C05F10259026402F50213030000FC
:1037660000003703F308EE02ED0237033703370391
:10377600000000001808F308EE02ED026F030000D7
:1037860000003703F308EE02ED02000000002509F1
:1037960000C180810000000D0A00524541445900D5
:1037A600636F6D6D616E642000676574616C6C6437
:1037B60069676974616C0066756E7A696F6E6520FB
:1037C600616C6C4469676974616C436F6D6D616EA1
:1037D60064006A736F6E005B007B226469676974BC
:1037E600616C223A2200414E414C495A5A4F2049B7
:1037F6004C2050494E2044007B2270696E223A22AA
:1038060000222C2276616C7565223A2200227D0008
:103816002C005D00452720494C2050494E20004C85
:1038260045545455524120004D494C4C495345434B
:103836002000496D706F73746F20696C2076616C1F
:103846006F72652000FE006D6F646500696E7075AD
:0A38560074006F7574707574000043
:00000001FF
